:1000000086C000009FC000009DC000009BC0000093
:1000100099C0000097C0000095C0000093C0000088
:1000200091C000008FC000008DC00000D1C300004F
:1000300089C0000087C0000085C0000083C00000A8
:1000400081C000007FC000007DC000007BC00000B8
:1000500079C0000077C0000075C0000073C00000C8
:1000600071C000006FC000006DC000006BC00000D8
:1000700069C00000220348003100310035006900EA
:10008000200045006D0075006C006100740069007F
:100090006E0075006D0000001C0345006D007500CA
:1000A0006C006100740065006400200049006E006F
:1000B00063002E000000040309040902220001016C
:1000C00000C03209040000010300000009211101F1
:1000D0000001222000070581034000E81201100101
:1000E000000000081C1B170C0001010200010600A3
:1000F000FF0901A1010902150025FF75089540813E
:10010000020903150025FF750895409102C01124CE
:100110001FBECFEFD2E0DEBFCDBF11E0A0E0B1E067
:10012000E4E5F0E102C005900D92A031B107D9F7E6
:1001300021E0A0E1B1E001C01D92AF35B207E1F7C7
:1001400026D086C75DCF9BB19063809598239BB9DD
:10015000089584B7877F84BF0FB6F894A8958091DF
:100160006000886180936000109260000FBE80E89C
:1001700090E00FB6F89480936100909361000FBEF9
:100180008AB180638AB98BB180638BB912C3E1DF16
:1001900080E2D9DF789480E091E081D618D5FBCF5A
:1001A00080E1D1CF80E2CFCF80E091E060D6909126
:1001B000E20094609093E200811102C080E2C3CF1C
:1001C00080E1FDCF80E091E01CC580910E0190910F
:1001D0000F01009729F0019790930F0180930E0172
:1001E00008950F931F93F901D8019FEF908388E73B
:1001F000818381E182838FE0838314828EE2858311
:1002000016828DEB87838BE180871186128689EDBC
:10021000838748EE448733E03587868722E3278744
:1002200026E0208B118A828B438B348B858B82E96D
:10023000868B278B82E0808F918F128E138E948F06
:1002400089EE858F8AE0868F178E10A211A212A2E6
:1002500013A214A215A216A217A210A611A612A6E6
:1002600013A614A615A616A617A610AA11AA12AAB6
:1002700013AA14AA15AA16AA17AA10AE11AE12AE86
:1002800013AE14AE15AE16AE81E287AF80E490E0F7
:100290008D939C938091100190911101892B41F0D5
:1002A000109211011092100181E01F910F91089599
:1002B00080E0FBCFF9018081811180E29181911171
:1002C000806141DF81E090E0909311018093100103
:1002D00008959C01DA01832F992783309105B9F0A5
:1002E00060F48130910561F10297E1F482E290E0DF
:1002F0002AEB30E02D933C9308958132910529F14A
:10030000829781F480E290E02EEE30E0F3CFC901D5
:100310009927213061F08230910579F0E6EBF0E029
:10032000892B39F090E080E030E020E0E3CFE8E98D
:10033000F0E0849190E09F01DDCFE4E7F0E0F9CFB9
:1003400082E190E02CED30E0D5CF89E090E02CEC1C
:1003500030E0D0CFAF92BF92CF92DF92FF920F9357
:100360001F93CF93DF936C01EB018A01B8D1F82E74
:10037000811124C00115110539F0F80180819181A6
:10038000C81BD90BC80ED91EB12CA12C2097B1F0D7
:100390008091E80085FD22C08091E8008E778093EF
:1003A000E80015D401151105A1F0F80180819181B3
:1003B000A80EB91EB182A08285E0F82E8F2DDF91A4
:1003C000CF911F910F91FF90DF90CF90BF90AF9092
:1003D000089585D18823D1F2F82EF0CFF6018191CE
:1003E0006F018093F1002197FFEFAF1ABF0ACECFC4
:1003F000FC01CB0120915D0130915E01261737078A
:1004000090F0009729F42091E8002E772093E800DF
:1004100040E0009751F4411108C08091E80082FF4C
:1004200030C080E00895C901F3CF20915601222306
:10043000A1F12530A1F12091E80023FD2CC02091ED
:10044000E80022FDEACF2091E80020FFE2CF2091D2
:10045000F20030E0009719F02830310558F041E003
:100460002830310509F040E02091E8002E772093F4
:10047000E800CFCF41914093F10001972F5F3F4FAC
:10048000E9CF80915601882341F0853041F0809179
:10049000E80083FFC2CF81E0089582E0089583E001
:1004A0000895FC01CB01009729F42091E8002B77F7
:1004B0002093E800009731F48091E80080FF1AC093
:1004C00080E00895209156012223F1F02530C1F0FB
:1004D0002091E80023FD16C02091E80022FFEACF1A
:1004E0002091F200222309F32091F100219301973A
:1004F000B9F7DBCF80915601882331F08530E1F6E2
:1005000083E0089581E0089582E00895FC01CB0125
:1005100020915D0130915E012617370790F000971A
:1005200029F42091E8002E772093E80040E000971E
:1005300051F4411108C08091E80082FF31C080E091
:100540000895C901F3CF209156012223A9F1253046
:10055000A9F12091E80023FD2DC02091E80022FDA3
:10056000EACF2091E80020FFE2CF2091F20030E0B6
:10057000009719F02830310558F041E02830310556
:1005800009F040E02091E8002E772093E800CFCFDB
:1005900044914093F100319601972F5F3F4FE8CF90
:1005A00080915601882341F0853041F08091E80028
:1005B00083FFC1CF81E0089582E0089583E008952C
:1005C000982F953028F08F708093E90081E008958E
:1005D0009093E900242F762F50E0981731F0709116
:1005E000EC002091ED005091F00021FD02C09F5FD2
:1005F000E8CF3091EB003E7F3093EB003091ED007F
:100600003D7F3093ED003091EB0031603093EB0093
:100610007093EC002093ED005093F0002091EE00D9
:1006200027FDE5CF80E008950F931F93CF93DF93CD
:10063000162FEC0100E0011302C081E00BC02881FD
:10064000211103C00F5F2596F6CF822F8F70853062
:1006500030F080E0DF91CF911F910F9108959C8140
:1006600042E0923008F046E0E981FA8168E070E00B
:1006700090E06E177F0780F09295907F492B6B81F9
:100680006295660F660F607C221F2227221F622B55
:1006900097DF8111D7CFDDCF9F5F660F771FE9CF3F
:1006A0008091570187FF13C08091E80082FF06C048
:1006B0008091E8008B778093E80004C08091560118
:1006C0008111F2CF0895809156018823D9F380914A
:1006D000E80080FFF8CF8091E8008E77ECCF209182
:1006E000E4003091E50095E6A9012091EC00822F0D
:1006F000817020FF06C08091E80080FF06C080E086
:1007000008952091E80022FD1AC0809156018823A7
:1007100089F0853089F08091EB0085FD0FC0209134
:10072000E4003091E50042175307F9F29150E1F6E9
:1007300084E0089582E0089583E0089581E00895BB
:1007400041D043D08091D8008F778093D80080919A
:10075000D80080688093D8008091D8008F7D8093E6
:10076000D80084E089BD86E089BD09B400FEFDCFD4
:10077000109256011092520110925401109253019E
:1007800042E060E080E01CDF8091E1008E7F80939A
:10079000E1008091E20081608093E2008091E200BC
:1007A00088608093E2008091E0008E7F8093E0007B
:1007B0000895E3E6F0E080818E7F808381E080937E
:1007C0005501BECF1092E20008951092E100089505
:1007D0001F920F920FB60F9211242F933F934F93B6
:1007E0005F936F937F938F939F93AF93BF93EF9399
:1007F000FF938091E10082FF0AC08091E20082FFB6
:1008000006C08091E1008B7F8093E100DEDC809167
:10081000E10080FF17C08091E20080FF13C080914B
:10082000E2008E7F8093E2008091E20080618093FD
:10083000E2008091D80080628093D80019BC1092A9
:100840005601B0DC8091E10084FF27C08091E20076
:1008500084FF23C084E089BD86E089BD09B400FE21
:10086000FDCF8091D8008F7D8093D8008091E100EA
:100870008F7E8093E1008091E2008F7E8093E20082
:100880008091E20081608093E20080915201882390
:10089000D9F184E08093560183DC8091E10083FFED
:1008A00022C08091E20083FF1EC08091E100877F1B
:1008B0008093E10082E08093560110925201809172
:1008C000E1008E7F8093E1008091E2008E7F809333
:1008D000E2008091E20080618093E20042E060E00B
:1008E00080E06EDE73D1FF91EF91BF91AF919F9148
:1008F0008F917F916F915F914F913F912F910F90C9
:100900000FBE0F901F9018958091E30087FD02C0E5
:1009100081E0C0CF83E0BECF1F93CF93DF93CDB7ED
:10092000DEB7AA970FB6F894DEBF0FBECDBF87E53E
:1009300091E0FC0101962091F100208321E08F35A8
:100940009207B9F73FDC8091E80083FF10C08091E7
:10095000570190915801953009F4C2C000F5292F34
:100960002D7F213009F489C0992309F45EC080915C
:10097000E80083FF0AC08091E800877F8093E80049
:100980008091EB0080628093EB00AA960FB6F894FA
:10099000DEBF0FBECDBFDF91CF911F91089598307C
:1009A00009F4D5C0993009F4DFC0963001F78058BA
:1009B0008230E8F68091590190915A018C3D23E0F4
:1009C000920709F0AFC083E08A838AE289834FB738
:1009D000F894DE01139620E03EE051E2E32FF0E0D0
:1009E00050935700E49120FF03C0E295EF703F5F02
:1009F000EF708E2F90E0EA3008F492C0C7968D9386
:100A00009D932F5F243151F74FBF8091E800877F7E
:100A10008093E8006AE270E0CE010196E9DC809103
:100A2000E8008B778093E800A2CF803899F0823875
:100A300009F09DCF80915B018F70853008F097CFD2
:100A40008093E9008091EB0085FB882780F9109264
:100A5000E90006C080915301909154019111826088
:100A60009091E800977F9093E8008093F1001092B6
:100A7000F1008091E8008E77A5C0882309F492C028
:100A8000823009F074CF80915901811196C0809114
:100A90005B018F702FEF280F243008F068CF809310
:100AA000E9002091EB0020FF88C0933031F4809161
:100AB000EB0080628093EB0080C09091EB0090612E
:100AC0009093EB0021E030E001C0220F8A95EAF715
:100AD0002093EA001092EA008091EB008860EACF50
:100AE000811145CF109159011F778091E3008078E3
:100AF000812B8093E3008091E800877F8093E8005A
:100B0000CFDD8091E80080FFFCCF8091E30080681A
:100B10008093E30082E0111183E08093560127CF98
:100B2000C0966DCF60915B0170915C01AE014F5F2B
:100B30005F4FCFDBBC01892B09F419CF8091E8000E
:100B4000877F8093E80089819A81E0DC68CF8038D4
:100B500009F00DCF8091E800877F8093E8008091B5
:100B600052018093F10085CF811101CF90915901FD
:100B7000923008F0FCCE8091E800877F8093E800F7
:100B8000909352018DDD80915201882311F084E011
:100B900005C08091E30087FDFACF81E08093560184
:100BA00003DBE5CE80915901813009F0E0CE81E090
:100BB000933009F080E0809354011092E900809115
:100BC000E800877F8093E8006BDDD1CE0895CF9356
:100BD00080915601882399F0C091E900CF709091DF
:100BE000EC00892F817090FD80E8C82B1092E900FD
:100BF0008091E80083FD90DECF70C093E900CF9133
:100C00000895AF92BF92CF92DF92EF92FF920F932F
:100C10001F93CF93DF9300D000D000D00F92CDB7B9
:100C2000DEB77C018DB79EB79F838E838091E800ED
:100C300083FF17C0F701208180915B0190915C01D7
:100C40002817190671F480915801893009F48CC075
:100C500000F5823009F4F5C0833009F4BFC081305B
:100C600081F18E819F810FB6F8949EBF0FBE8DBF1C
:100C700027960FB6F894DEBF0FBECDBFDF91CF91A0
:100C80001F910F91FF90EF90DF90CF90BF90AF90AA
:100C900008958A3009F4BBC08B3019F78091570151
:100CA0008132F9F68091E800877F8093E800F8DCD4
:100CB0009091590181E0911101C080E0F701818795
:100CC000D0CF80915701813A61F68DB79EB79D8351
:100CD0008C831A8219828091590110915A018B8359
:100CE0008085482F50E08DB79EB7841B950B0FB6BB
:100CF000F8949EBF0FBE8DBFEDB7FEB731966F0162
:100D000070E060E0CF019DD14FEF410F8E010F5F8A
:100D10001F4F9601BE016D5F7F4FC70162DAF70179
:100D200086819781009721F0408550E0B60180D1FF
:100D30001092E9008091E800877F8093E8008B8122
:100D400081118093F10069817A81C60151DB809124
:100D5000E8008B778093E8008C819D810FB6F89432
:100D60009EBF0FBE8DBF7DCF80915701813209F0AC
:100D700078CFEDB7FEB7FD83EC8300915D01109154
:100D80005E01B0905901A0905A018DB79EB7801BAB
:100D9000910B0FB6F8949EBF0FBE8DBFEDB7FEB797
:100DA00031966F018091E800877F8093E800B80159
:100DB000CF0177DB8091E8008E778093E80021E017
:100DC000B11001C020E030E0021B130B2C0D3D1DC3
:100DD0004FEF4A0D6B2DC7016DDABECF80915701E1
:100DE000813A09F03ECF8091E800877F8093E80048
:100DF0008091E80080FFFCCFF70181858093F100AE
:100E00008091E8008E778093E8004ADC2ACF8091B9
:100E10005701813209F025CF8091E800877F8093C8
:100E2000E8003EDC8091590190915A0136E0969598
:100E300087953A95E1F78C7F9370F70195878487C2
:100E400010CF80915701813A09F00BCF8091E800D3
:100E5000877F8093E8008091E80080FFFCCFF70156
:100E6000848595859695879596958795C7CFCF93D9
:100E7000DF93FC01DC011A9686E0ED0119928A9558
:100E8000E9F781E0818784EF91E09587848783E0AB
:100E9000848361E0CF010196DF91CF91C5CB9F9212
:100EA000AF92BF92CF92DF92EF92FF920F931F9378
:100EB000CF93DF9300D000D000D00F92CDB7DEB734
:100EC0007C018DB79EB79F838E83809156018430BD
:100ED00009F088C08091E4009091E500F701228537
:100EE00033852817390709F47DC081818F7080937D
:100EF000E9008091E80085FF75C08DB79EB79D839E
:100F00008C83408550E0EDB7FEB7E41BF50B0FB6C0
:100F1000F894FEBF0FBEEDBF8DB79EB701966C0172
:100F20001B821A82198270E060E08BD08E010F5F05
:100F30001F4F960140E0BE016D5F7F4FC70151D941
:100F4000982EF70184859585892B29F011E08685F7
:100F50009785892B09F010E0F701A680B78000E0A3
:100F6000A114B10479F049815A81B501C60153D069
:100F700001E0892B09F400E0F701408550E0B6015B
:100F8000C50156D089819A81892BF1F0911004C056
:100F9000011102C010FF18C0F7018485958597875D
:100FA000868781818F708093E9008B818111809386
:100FB000F10069817A8150E040E0C601CBD980918F
:100FC000E8008E778093E8008091E4009091E5003E
:100FD000F701938782878C819D810FB6F8949EBF1D
:100FE0000FBE8DBFEE81FF810FB6F894FEBF0FBE1E
:100FF000EDBF27960FB6F894DEBF0FBECDBFDF91D1
:10100000CF911F910F91FF90EF90DF90CF90BF9005
:10101000AF909F900895FB01DC0104C08D91019079
:10102000801921F441505040C8F7881B990B08954E
:10103000FB01DC0102C001900D9241505040D8F7F5
:101040000895DC0101C06D9341505040E0F70895D0
:04105000F894FFCF42
:101054000081400000011201400000000000000077
:00000001FF
